:020000040000fa
:080000000002040000000000f2
:020000040000fa
:100008009a0200009a0200009a0200009a02000078
:100018009a0200009a0200009a0200009a02000068
:100028009a0200009a0200009a0200009a02000058
:100038009a0200009a0200009a0200009a02000048
:100048009a0200009a0200009a0200009a02000038
:100058009a0200009a0200009a0200009a02000028
:100068009a0200009a0200009a0200004e04000062
:100078009a0200009a0200009a0200009a02000008
:100088009a0200009a0200009a0200009a020000f8
:100098009a0200009a0200009a0200009a020000e8
:1000a8009a0200009a0200009a0200009a020000d8
:1000b8009a0200009a0200009a0200009a020000c8
:1000c8009a0200009a0200009a0200009a020000b8
:1000d8009a0200009a0200009a0200009a020000a8
:1000e8009a0200009a0200009a0200009a02000098
:1000f8009a0200009a0200009a0200009a02000088
:100108009a0200009a0200009a0200009a02000077
:100118009a0200009a0200009a0200009a02000067
:100128009a0200009a0200009a0200009a02000057
:100138009a0200009a0200009a0200009a02000047
:100148009a0200009a0200009a0200009a02000037
:100158009a0200009a0200009a0200009a02000027
:100168009a0200009a0200009a0200009a02000017
:100178009a0200009a0200009a0200009a02000007
:100188009a0200009a0200009a0200009a020000f7
:100198009a0200009a0200009a0200009a020000e7
:1001a8009a0200009a0200009a0200009a020000d7
:1001b8009a0200009a0200009a0200009a020000c7
:1001c8009a0200009a0200009a0200009a020000b7
:1001d8009a0200009a0200009a0200009a020000a7
:1001e8009a0200009a0200009a0200009a02000097
:0801f8009a0200009a020000c7
:020000040000fa
:100208009a0200009a0200009a0200009a02000076
:100218009a0200009a0200009a0200009a02000066
:100228009a0200009a0200009a0200009a02000056
:100238009a0200009a0200009a0200009a02000046
:100248009a0200009a0200009a0200009a02000036
:100258009a0200009a0200009a0200009a02000026
:100268009a0200009a0200009a0200004e04000060
:100278009a0200009a0200009a0200009a02000006
:100288009a0200009a0200009a0200009a020000f6
:100298009a0200009a0200009a0200009a020000e6
:1002a8009a0200009a0200009a0200009a020000d6
:1002b8009a0200009a0200009a0200009a020000c6
:1002c8009a0200009a0200009a0200009a020000b6
:1002d8009a0200009a0200009a0200009a020000a6
:1002e8009a0200009a0200009a0200009a02000096
:1002f8009a0200009a0200009a0200009a02000086
:100308009a0200009a0200009a0200009a02000075
:100318009a0200009a0200009a0200009a02000065
:100328009a0200009a0200009a0200009a02000055
:100338009a0200009a0200009a0200009a02000045
:100348009a0200009a0200009a0200009a02000035
:100358009a0200009a0200009a0200009a02000025
:100368009a0200009a0200009a0200009a02000015
:100378009a0200009a0200009a0200009a02000005
:100388009a0200009a0200009a0200009a020000f5
:100398009a0200009a0200009a0200009a020000e5
:1003a8009a0200009a0200009a0200009a020000d5
:1003b8009a0200009a0200009a0200009a020000c5
:1003c8009a0200009a0200009a0200009a020000b5
:1003d8009a0200009a0200009a0200009a020000a5
:1003e8009a0200009a0200009a0200009a02000095
:0803f8009a0200009a020000c5
:020000040000fa
:100400000f8220000e7f22000e01880000000000f5
:10041000000020000000e000020032000001200087
:10042000200288000c000700e0932000010020005b
:1004300011000700000020000000e0000200320070
:100440000000020000000000c602020000000000e0
:100450000040da000000fe004440a90080022000b5
:100460000000e0000300320000002000a00188002e
:100470004440a80000000600910188008000780038
:100480000000eb0015003700e280400032a0b4000d
:100490009101ba00e280400032a0b4009102ba009b
:1004a000e280400032a0b4000002eb00472bde00e7
:1004b000f507b200602ce10004003a000059eb009f
:1004c0008301e900fdff3e00040037006128e100e0
:1004d000010032000082eb00040007001101ba00a5
:1004e0000200e000e8ff3a00000006003159ba00bf
:1004f0008301e9000c0032002159ba008301e900b0
:10050000080032000400e00003003a00e2804000ee
:1005100032a0b400f5ff370011d9ba008301e90019
:10052000faff3a008100e800e180400032a0b40008
:0c053000000006000040da000000fe00a1
:020000040000fa
:10053c00476f00006f64000000420000616400001f
:10054c0000560000616c0000696400000049000066
:10055c006e760000616c0000696400000000000011
:10056c00456e0000746500007200000053650000c9
:10057c00742000004d6f0000646500000000000056
:020000040000fa
:10058c000000fa0028020700b4010700f40107007c
:10059c0034002000d4408800010037000000000027
:1005ac00d4408000050020004600200007002000f9
:1005bc00860f5200878f5a00f8ff3e00046001003e
:1005cc0004003700080037000f0037009f00370089
:1005dc00a6003700c402a900c422a900cc42a9007d
:1005ec00cc62a900a9003700250207000042780060
:1005fc000002fd0000e8b7000002fd00240020000e
:10060c00d4408800a10037000480200014427800f8
:10061c00e14f42008a00320004802000144278002e
:10062c000440780084010700f6408000048020001c
:10063c00144278004581200085024300844a7800ea
:10064c00f44080000402e800f4408800f44080008c
:10065c00e20f52000d003a00e4408000e00f52001f
:10066c000a003a00220020004181200080812000f5
:10067c00b300070000027800e00f52002b0032009c
:10068c0044002000d440880028003700f44080004b
:10069c00e40f520011003a00e4408000e00f5200d9
:1006ac000e003a00ae010700c700070000027800f8
:1006bc00e00f520003003200e029280094010700eb
:1006cc0002003700302a280091010700c8020700f9
:1006dc0034002000d440880014003700e44080002f
:1006ec00e00f520011003200f4408000e40f520081
:1006fc000e003a009a010700d300070000027800b0
:10070c00e00f520004003200702a2800800107001c
:10071c00b702070003003700d02a28007c0107002d
:10072c00b302070034002000d4408800f44080005d
:10073c00e10f52000f003400d4408000e20f520051
:10074c000c003a004581200095427800a4c2b30009
:10075c0084cf520007003a0081010700302a28009c
:10076c006b010700a202070034002000d44088006f
:10077c002d003700058020009542780034c2b3006c
:10078c0084cf52000800320005802000954278008a
:10079c00a4c2b30084cf520010003a00f440800091
:1007ac00e10f52000d003400e4408000e00f5200d5
:1007bc000a003a00d4408000e20f520007003a00d1
:1007cc0067010700302a2800510107008802070042
:1007dc0034002000d440880013003700058020002e
:1007ec009542780034c2b30084cf52000500320029
:1007fc000580200095427800a4c2b30084cf52003b
:10080c0009003a00e4408000e00f5200060032007c
:10081c0053010700d02a28003d010700740207008d
:10082c0034002000d4408800d4408000e20f5200f5
:10083c0005003a000002eb00d440880002003700ab
:10084c000002eb00d4408800100037006401070060
:10085c000002eb00e44088000002eb00d44088006a
:10086c000002eb00f4408800080037006501070027
:10087c0014002000e44088000002eb00d440880003
:10088c000002eb00f44088000000000044ff370039
:10089c003600f800809fbe00829fbe00849fbe0081
:1008ac00869fbe003400f80000002000a0018800e4
:1008bc000000fa008660a900a000200026020700b4
:1008cc00d4408000e00f520015003a00551680000d
:1008dc000420200004826200e00f52000a00320063
:1008ec00551680000440200004826200e00f520084
:1008fc00050032005516800004802000048262003e
:10090c00e00f520006003a005d010700004278003b
:10091c000400780000e8b70024002000d4408800d0
:10092c000080fa003400f9004f03be004f02be00f5
:10093c004f01be004f00be003600f900004006001b
:10094c000a00fa0020079800310798004207980027
:10095c0014002000040f78000002eb00140798002c
:10096c000002eb00140798000f0037001e029000e5
:10097c00ae02900004824200944278001e02900065
:10098c003e039000040243001442780084cf5200ce
:10099c00020032000002eb00040f78001e029000ef
:1009ac000402e800140798009e0290004e0290008a
:1009bc00848f5200edff35001e0278000400780091
:1009cc000080fa00000006000400fa000002eb00b0
:1009dc00040f78000002eb00140798000002eb00f3
:1009ec001407980011003700458020001e0290006b
:1009fc004222dd0004824200420020008400780084
:100a0c0040812000ceff070000027800e00f52006a
:100a1c000300320014002000040f78000600370099
:100a2c001e0290000402e800140798001e029000b9
:100a3c00e30f5200ecff34001e0278000400780033
:100a4c000080fa00000006000400fa0014002000e8
:100a5c00040f78000002eb00140798000002eb0072
:100a6c0014079800130037009e0290004481200068
:100a7c000482420094427800a4c2b30084cf520096
:100a8c00070032009e029000448120000482420044
:100a9c009442780034c2b30084cf520002003a0072
:100aac000002eb00040f78001e0290000402e80024
:100abc00140798001e029000e30f5200eaff340066
:100acc001e027800e00f52001c003200154080001e
:100adc0044002000110009008402d80001027800b3
:100aec000402e800144088000002eb001407980090
:100afc000f003700144080008402e9001e039000b0
:100b0c00448120000402430014427800422bdd0093
:100b1c009e0290000503430045802000850243009f
:100b2c00844a78001e0290000402e8001407980022
:100b3c001e029000e30f5200eeff34001e027800fc
:100b4c00040078000080fa00000006000800fa009b
:100b5c00004f78001107980022079800330798007f
:100b6c003e029000e00f5200050032009e427800d9
:100b7c000582fb004c22dd0064168800070037005c
:100b8c009e4278000582fb004422de00044278007d
:100b9c000482fb004c22dd00641688001e029000cb
:100bac0004427800614262000482fb006102620030
:100bbc004722dd0066168000f5f72f0085026300e2
:100bcc000502720064168800100020004a0107001c
:100bdc00ccc2a8001000200047010700ccc2a9001d
:100bec0010002000440107002e0090004201070075
:100bfc000080fa00000006000600fa00004f7800a2
:100c0c0011079800220798008001eb002e0190003c
:100c1c009e0090001e407800ccff070013002000bf
:100c2c002e0190009e0090001e407800c7ff070028
:100c3c000080fa00000006000200fa00004f780065
:100c4c001e427800e20220001100200004407800cf
:100c5c00e9ff07000080fa00000006000000fa001f
:100c6c00c8e2a900c8c2a900c9e2a900c9c2a9006a
:100c7c00c9a2a900c982a900c05d20001e010700fd
:100c8c0013002000420021008000eb0030c0b300b4
:100c9c00aeff070013002000420620008000eb008e
:100cac0030c0b300a9ff0700820220008000eb00d7
:100cbc0020c3b300d0ff0700820220008000eb00ad
:100ccc0080c2b300ccff0700820220008000eb0042
:100cdc0080c0b300c8ff0700826620008000eb00d4
:100cec0010c0b300c4ff0700820220008000eb009c
:100cfc0060c0b300c0ff0700820220008000eb0040
:100d0c00c0c0b300bcff07000080fa000000060062
:100d1c000400fa00100798000002eb00040f7800a2
:100d2c00070037001e0278009e02900004824200e9
:100d3c001442780004407800bfff07001e0fe80043
:100d4c001e0278009e029000048242001442780039
:100d5c00e04f5200f3ff3a000080fa00000006005a
:100d6c000000fa00826620008000eb0010c0b30087
:100d7c00a1ff07000080fa00000006000400fa0042
:100d8c00204798003147980004082000040f780091
:100d9c003e4290000482fb001e0f42002e42900047
:100dac00e14f520002003a00040420001e0f4200e2
:100dbc001e02780004427800820220008000eb00c2
:100dcc00044078008cff0700820220008000eb00ba
:100ddc0000ccb30088ff07000080fa00000006007a
:100dec000000fa00deff0700602b2800c8ff070098
:100dfc008040eb0010c0b300e0ff07000080fa0059
:100e0c00000006000000fa00d5ff0700c02b2800e8
:100e1c00bfff07008040eb0010c0b300d7ff0700f6
:100e2c000080fa00000006000000fa00c002a900d1
:100e3c00c022a900c842a900c862a900c602a80025
:100e4c00c622a800ce42a800ce62a800c922a800e3
:100e5c00c942a800c962a8006aa0a8006a00a8003c
:100e6c0069e0a8008660a90062a0a8006200a80042
:100e7c0061e0a8009660a8000080fa00000006005f
:100e8c000400fa0000c2eb00044f78000002eb00f3
:100e9c0014079800c402a900c422a800cc42a800e0
:100eac00cc62a800a0002000ab0007005516800003
:100ebc000420200004826200e00f520005003a007a
:100ecc0014c3b300044f78001e0290000402e80023
:100edc00140798005516800004402000048262001c
:100eec00e00f520005003a0024c3b300044f780011
:100efc001e0290000402e8001407980055168000aa
:100f0c000480200004826200e00f520005003a00c9
:100f1c0034c3b300044f78001e0290000402e800b2
:100f2c0014079800c402a800c422a900a000200045
:100f3c0089000700551680000420200004826200fe
:100f4c00e00f520005003a0044c3b300044f780090
:100f5c001e0290000402e800140798005516800049
:100f6c000440200004826200e00f520005003a00a9
:100f7c0054c3b300044f78001e0290000402e80032
:100f8c00140798005516800004802000048262002b
:100f9c00e00f520005003a0064c3b300044f780020
:100fac001e0290000402e80014079800c422a80056
:100fbc00cc42a900a0002000670007005516800055
:100fcc000420200004826200e00f520005003a0069
:100fdc0074c3b300044f78001e0290000402e800b2
:100fec00140798005516800004402000048262000b
:100ffc00e00f520005003a0084c3b300044f7800a0
:10100c001e0290000402e800140798005516800098
:10101c000480200004826200e00f520005003a00b8
:10102c0094c3b300044f78001e0290000402e80041
:10103c0014079800cc42a800cc62a900a0002000a4
:10104c004500070055168000042020000482620031
:10105c00e00f520005003a00a4c2b300044f780020
:10106c001e0290000402e800140798005516800038
:10107c000440200004826200e00f520005003a0098
:10108c0004c3b300044f78001e0290000402e80071
:10109c00140798005516800004802000048262001a
:1010ac00e00f520005003a0034c2b300044f780040
:1010bc001e0290000402e80014079800c402a90064
:1010cc00c422a900cc42a900cc62a900a000200037
:1010dc00210007001e029000e10f520002003400b4
:1010ec0000c2eb00044f78001e42780004407800e8
:1010fc000080fa00000006000200fa00000f7800e1
:10110c000002eb00340888001e0278006e22b90041
:10111c000402780064088800840880000440a10060
:10112c000450a1008408880084e0a90011e1a80003
:10113c0000000000250480000408200004826200e6
:10114c00e00f5200fbff320084e0a90011e1a9007e
:10115c000080fa00000006000200fa00000f780080
:10116c000002eb00040888009e0278009403200023
:10117c0004aab9000402780014088800240880002e
:10118c000440a0000450a000240888008460a9003a
:10119c0005e1a80000000000240480006802620041
:1011ac00e00f5200fcff32008460a90005e1a900a9
:1011bc000080fa00000006000200fa00f423200070
:1011cc00040f78001e0278001408880024088000a0
:1011dc000440a0000450a000240888009460a800db
:1011ec008460a90005e1a8000080fa000000060058
:1011fc000200fa000002eb0034088800940320007f
:10120c0064088800840880000440a0000450a000fa
:10121c008408880084e0a90011e1a8000002eb001a
:10122c00040f78000a00370000000000250480003d
:10123c000408200004826200e00f5200fbff320021
:10124c000002eb000408880084e0a9001e0fe800ef
:10125c00f47c20009e027800848f5200f2ff340050
:10126c0084e0a90011e1a9000080fa00000006004a
:020000040000fa
:10127c001a08000006000000000000000008000032
:10128c001a00000002000000ff00010000313200d3
:10129c00333478007878780078787800787878002b
:1012ac0078787800787878002a2a0000000000000e
:020000040000fa
:020000040001f9
:0457f800ad7b000085
:020000040000fa
:020000040001f9
:0457fc003f3f00002b
:00000001FF
